{
  "_format": "hh-sol-artifact-1",
  "contractName": "NFT",
  "sourceName": "contracts/NFT.sol",
  "abi": [
    {
      "inputs": [],
      "stateMutability": "nonpayable",
      "type": "constructor"
    },
    {
      "anonymous": false,
      "inputs": [
        {
          "indexed": true,
          "internalType": "address",
          "name": "owner",
          "type": "address"
        },
        {
          "indexed": true,
          "internalType": "address",
          "name": "approved",
          "type": "address"
        },
        {
          "indexed": true,
          "internalType": "uint256",
          "name": "tokenId",
          "type": "uint256"
        }
      ],
      "name": "Approval",
      "type": "event"
    },
    {
      "anonymous": false,
      "inputs": [
        {
          "indexed": true,
          "internalType": "address",
          "name": "owner",
          "type": "address"
        },
        {
          "indexed": true,
          "internalType": "address",
          "name": "operator",
          "type": "address"
        },
        {
          "indexed": false,
          "internalType": "bool",
          "name": "approved",
          "type": "bool"
        }
      ],
      "name": "ApprovalForAll",
      "type": "event"
    },
    {
      "anonymous": false,
      "inputs": [
        {
          "indexed": false,
          "internalType": "uint256",
          "name": "_fromTokenId",
          "type": "uint256"
        },
        {
          "indexed": false,
          "internalType": "uint256",
          "name": "_toTokenId",
          "type": "uint256"
        }
      ],
      "name": "BatchMetadataUpdate",
      "type": "event"
    },
    {
      "anonymous": false,
      "inputs": [
        {
          "indexed": false,
          "internalType": "uint256",
          "name": "_tokenId",
          "type": "uint256"
        }
      ],
      "name": "MetadataUpdate",
      "type": "event"
    },
    {
      "anonymous": false,
      "inputs": [
        {
          "indexed": true,
          "internalType": "address",
          "name": "from",
          "type": "address"
        },
        {
          "indexed": true,
          "internalType": "address",
          "name": "to",
          "type": "address"
        },
        {
          "indexed": true,
          "internalType": "uint256",
          "name": "tokenId",
          "type": "uint256"
        }
      ],
      "name": "Transfer",
      "type": "event"
    },
    {
      "inputs": [
        {
          "internalType": "address",
          "name": "to",
          "type": "address"
        },
        {
          "internalType": "uint256",
          "name": "tokenId",
          "type": "uint256"
        }
      ],
      "name": "approve",
      "outputs": [],
      "stateMutability": "nonpayable",
      "type": "function"
    },
    {
      "inputs": [
        {
          "internalType": "address",
          "name": "owner",
          "type": "address"
        }
      ],
      "name": "balanceOf",
      "outputs": [
        {
          "internalType": "uint256",
          "name": "",
          "type": "uint256"
        }
      ],
      "stateMutability": "view",
      "type": "function"
    },
    {
      "inputs": [
        {
          "internalType": "uint256",
          "name": "tokenId",
          "type": "uint256"
        }
      ],
      "name": "getApproved",
      "outputs": [
        {
          "internalType": "address",
          "name": "",
          "type": "address"
        }
      ],
      "stateMutability": "view",
      "type": "function"
    },
    {
      "inputs": [
        {
          "internalType": "address",
          "name": "owner",
          "type": "address"
        },
        {
          "internalType": "address",
          "name": "operator",
          "type": "address"
        }
      ],
      "name": "isApprovedForAll",
      "outputs": [
        {
          "internalType": "bool",
          "name": "",
          "type": "bool"
        }
      ],
      "stateMutability": "view",
      "type": "function"
    },
    {
      "inputs": [],
      "name": "name",
      "outputs": [
        {
          "internalType": "string",
          "name": "",
          "type": "string"
        }
      ],
      "stateMutability": "view",
      "type": "function"
    },
    {
      "inputs": [
        {
          "internalType": "uint256",
          "name": "tokenId",
          "type": "uint256"
        }
      ],
      "name": "ownerOf",
      "outputs": [
        {
          "internalType": "address",
          "name": "",
          "type": "address"
        }
      ],
      "stateMutability": "view",
      "type": "function"
    },
    {
      "inputs": [
        {
          "internalType": "string",
          "name": "uri",
          "type": "string"
        },
        {
          "internalType": "address",
          "name": "marketPlaceAddress",
          "type": "address"
        },
        {
          "internalType": "address",
          "name": "creator",
          "type": "address"
        }
      ],
      "name": "safeMint",
      "outputs": [
        {
          "internalType": "uint256",
          "name": "",
          "type": "uint256"
        }
      ],
      "stateMutability": "payable",
      "type": "function"
    },
    {
      "inputs": [
        {
          "internalType": "address",
          "name": "from",
          "type": "address"
        },
        {
          "internalType": "address",
          "name": "to",
          "type": "address"
        },
        {
          "internalType": "uint256",
          "name": "tokenId",
          "type": "uint256"
        }
      ],
      "name": "safeTransferFrom",
      "outputs": [],
      "stateMutability": "nonpayable",
      "type": "function"
    },
    {
      "inputs": [
        {
          "internalType": "address",
          "name": "from",
          "type": "address"
        },
        {
          "internalType": "address",
          "name": "to",
          "type": "address"
        },
        {
          "internalType": "uint256",
          "name": "tokenId",
          "type": "uint256"
        },
        {
          "internalType": "bytes",
          "name": "data",
          "type": "bytes"
        }
      ],
      "name": "safeTransferFrom",
      "outputs": [],
      "stateMutability": "nonpayable",
      "type": "function"
    },
    {
      "inputs": [
        {
          "internalType": "address",
          "name": "operator",
          "type": "address"
        },
        {
          "internalType": "bool",
          "name": "approved",
          "type": "bool"
        }
      ],
      "name": "setApprovalForAll",
      "outputs": [],
      "stateMutability": "nonpayable",
      "type": "function"
    },
    {
      "inputs": [
        {
          "internalType": "bytes4",
          "name": "interfaceId",
          "type": "bytes4"
        }
      ],
      "name": "supportsInterface",
      "outputs": [
        {
          "internalType": "bool",
          "name": "",
          "type": "bool"
        }
      ],
      "stateMutability": "view",
      "type": "function"
    },
    {
      "inputs": [],
      "name": "symbol",
      "outputs": [
        {
          "internalType": "string",
          "name": "",
          "type": "string"
        }
      ],
      "stateMutability": "view",
      "type": "function"
    },
    {
      "inputs": [
        {
          "internalType": "uint256",
          "name": "tokenId",
          "type": "uint256"
        }
      ],
      "name": "tokenURI",
      "outputs": [
        {
          "internalType": "string",
          "name": "",
          "type": "string"
        }
      ],
      "stateMutability": "view",
      "type": "function"
    },
    {
      "inputs": [
        {
          "internalType": "address",
          "name": "from",
          "type": "address"
        },
        {
          "internalType": "address",
          "name": "to",
          "type": "address"
        },
        {
          "internalType": "uint256",
          "name": "tokenId",
          "type": "uint256"
        }
      ],
      "name": "transferFrom",
      "outputs": [],
      "stateMutability": "nonpayable",
      "type": "function"
    }
  ],
  "bytecode": "0x60806040523480156200001157600080fd5b506040518060400160405280600c81526020016b115e18da185b99d94813919560a21b81525060405180604001604052806005815260200164115613919560da1b815250816000908162000066919062000123565b50600162000075828262000123565b505050620001ef565b634e487b7160e01b600052604160045260246000fd5b600181811c90821680620000a957607f821691505b602082108103620000ca57634e487b7160e01b600052602260045260246000fd5b50919050565b601f8211156200011e57600081815260208120601f850160051c81016020861015620000f95750805b601f850160051c820191505b818110156200011a5782815560010162000105565b5050505b505050565b81516001600160401b038111156200013f576200013f6200007e565b620001578162000150845462000094565b84620000d0565b602080601f8311600181146200018f5760008415620001765750858301515b600019600386901b1c1916600185901b1785556200011a565b600085815260208120601f198616915b82811015620001c0578886015182559484019460019091019084016200019f565b5085821015620001df5787850151600019600388901b60f8161c191681555b5050505050600190811b01905550565b61191880620001ff6000396000f3fe6080604052600436106100dd5760003560e01c80636af812821161007f578063a22cb46511610059578063a22cb46514610249578063b88d4fde14610269578063c87b56dd14610289578063e985e9c5146102a957600080fd5b80636af81282146101f357806370a082311461021457806395d89b411461023457600080fd5b8063095ea7b3116100bb578063095ea7b31461017157806323b872dd1461019357806342842e0e146101b35780636352211e146101d357600080fd5b806301ffc9a7146100e257806306fdde0314610117578063081812fc14610139575b600080fd5b3480156100ee57600080fd5b506101026100fd3660046113cc565b6102f2565b60405190151581526020015b60405180910390f35b34801561012357600080fd5b5061012c610336565b60405161010e9190611439565b34801561014557600080fd5b5061015961015436600461144c565b6103c8565b6040516001600160a01b03909116815260200161010e565b34801561017d57600080fd5b5061019161018c366004611481565b6103ef565b005b34801561019f57600080fd5b506101916101ae3660046114ab565b610525565b3480156101bf57600080fd5b506101916101ce3660046114ab565b61059c565b3480156101df57600080fd5b506101596101ee36600461144c565b6105b7565b610206610201366004611573565b61061c565b60405190815260200161010e565b34801561022057600080fd5b5061020661022f3660046115e5565b610661565b34801561024057600080fd5b5061012c6106fb565b34801561025557600080fd5b50610191610264366004611600565b61070a565b34801561027557600080fd5b5061019161028436600461163c565b610719565b34801561029557600080fd5b5061012c6102a436600461144c565b610797565b3480156102b557600080fd5b506101026102c43660046116b8565b6001600160a01b03918216600090815260056020908152604080832093909416825291909152205460ff1690565b60006001600160e01b031982167f4906490600000000000000000000000000000000000000000000000000000000148061033057506103308261089f565b92915050565b606060008054610345906116eb565b80601f0160208091040260200160405190810160405280929190818152602001828054610371906116eb565b80156103be5780601f10610393576101008083540402835291602001916103be565b820191906000526020600020905b8154815290600101906020018083116103a157829003601f168201915b5050505050905090565b60006103d38261093a565b506000908152600460205260409020546001600160a01b031690565b60006103fa826105b7565b9050806001600160a01b0316836001600160a01b0316036104885760405162461bcd60e51b815260206004820152602160248201527f4552433732313a20617070726f76616c20746f2063757272656e74206f776e6560448201527f720000000000000000000000000000000000000000000000000000000000000060648201526084015b60405180910390fd5b336001600160a01b03821614806104a457506104a481336102c4565b6105165760405162461bcd60e51b815260206004820152603d60248201527f4552433732313a20617070726f76652063616c6c6572206973206e6f7420746f60448201527f6b656e206f776e6572206f7220617070726f76656420666f7220616c6c000000606482015260840161047f565b61052083836109a1565b505050565b61052f3382610a1c565b6105915760405162461bcd60e51b815260206004820152602d60248201527f4552433732313a2063616c6c6572206973206e6f7420746f6b656e206f776e6560448201526c1c881bdc88185c1c1c9bdd9959609a1b606482015260840161047f565b610520838383610a9a565b61052083838360405180602001604052806000815250610719565b6000818152600260205260408120546001600160a01b0316806103305760405162461bcd60e51b815260206004820152601860248201527f4552433732313a20696e76616c696420746f6b656e2049440000000000000000604482015260640161047f565b600061062c600780546001019055565b600061063760075490565b90506106438382610ca0565b61064d8186610e38565b61065983856001610f12565b949350505050565b60006001600160a01b0382166106df5760405162461bcd60e51b815260206004820152602960248201527f4552433732313a2061646472657373207a65726f206973206e6f74206120766160448201527f6c6964206f776e65720000000000000000000000000000000000000000000000606482015260840161047f565b506001600160a01b031660009081526003602052604090205490565b606060018054610345906116eb565b610715338383610f12565b5050565b6107233383610a1c565b6107855760405162461bcd60e51b815260206004820152602d60248201527f4552433732313a2063616c6c6572206973206e6f7420746f6b656e206f776e6560448201526c1c881bdc88185c1c1c9bdd9959609a1b606482015260840161047f565b61079184848484610fe0565b50505050565b60606107a28261093a565b600082815260066020526040812080546107bb906116eb565b80601f01602080910402602001604051908101604052809291908181526020018280546107e7906116eb565b80156108345780601f1061080957610100808354040283529160200191610834565b820191906000526020600020905b81548152906001019060200180831161081757829003601f168201915b50505050509050600061085260408051602081019091526000815290565b90508051600003610864575092915050565b81511561089657808260405160200161087e929190611725565b60405160208183030381529060405292505050919050565b61065984611069565b60006001600160e01b031982167f80ac58cd00000000000000000000000000000000000000000000000000000000148061090257506001600160e01b031982167f5b5e139f00000000000000000000000000000000000000000000000000000000145b8061033057507f01ffc9a7000000000000000000000000000000000000000000000000000000006001600160e01b0319831614610330565b6000818152600260205260409020546001600160a01b031661099e5760405162461bcd60e51b815260206004820152601860248201527f4552433732313a20696e76616c696420746f6b656e2049440000000000000000604482015260640161047f565b50565b6000818152600460205260409020805473ffffffffffffffffffffffffffffffffffffffff19166001600160a01b03841690811790915581906109e3826105b7565b6001600160a01b03167f8c5be1e5ebec7d5bd14f71427d1e84f3dd0314c0f7b2291e5b200ac8c7c3b92560405160405180910390a45050565b600080610a28836105b7565b9050806001600160a01b0316846001600160a01b03161480610a6f57506001600160a01b0380821660009081526005602090815260408083209388168352929052205460ff165b806106595750836001600160a01b0316610a88846103c8565b6001600160a01b031614949350505050565b826001600160a01b0316610aad826105b7565b6001600160a01b031614610b115760405162461bcd60e51b815260206004820152602560248201527f4552433732313a207472616e736665722066726f6d20696e636f72726563742060448201526437bbb732b960d91b606482015260840161047f565b6001600160a01b038216610b8c5760405162461bcd60e51b8152602060048201526024808201527f4552433732313a207472616e7366657220746f20746865207a65726f2061646460448201527f7265737300000000000000000000000000000000000000000000000000000000606482015260840161047f565b826001600160a01b0316610b9f826105b7565b6001600160a01b031614610c035760405162461bcd60e51b815260206004820152602560248201527f4552433732313a207472616e736665722066726f6d20696e636f72726563742060448201526437bbb732b960d91b606482015260840161047f565b6000818152600460209081526040808320805473ffffffffffffffffffffffffffffffffffffffff199081169091556001600160a01b0387811680865260038552838620805460001901905590871680865283862080546001019055868652600290945282852080549092168417909155905184937fddf252ad1be2c89b69c2b068fc378daa952ba7f163c4a11628f55a4df523b3ef91a4505050565b6001600160a01b038216610cf65760405162461bcd60e51b815260206004820181905260248201527f4552433732313a206d696e7420746f20746865207a65726f2061646472657373604482015260640161047f565b6000818152600260205260409020546001600160a01b031615610d5b5760405162461bcd60e51b815260206004820152601c60248201527f4552433732313a20746f6b656e20616c7265616479206d696e74656400000000604482015260640161047f565b6000818152600260205260409020546001600160a01b031615610dc05760405162461bcd60e51b815260206004820152601c60248201527f4552433732313a20746f6b656e20616c7265616479206d696e74656400000000604482015260640161047f565b6001600160a01b0382166000818152600360209081526040808320805460010190558483526002909152808220805473ffffffffffffffffffffffffffffffffffffffff19168417905551839291907fddf252ad1be2c89b69c2b068fc378daa952ba7f163c4a11628f55a4df523b3ef908290a45050565b6000828152600260205260409020546001600160a01b0316610ec25760405162461bcd60e51b815260206004820152602e60248201527f45524337323155524953746f726167653a2055524920736574206f66206e6f6e60448201527f6578697374656e7420746f6b656e000000000000000000000000000000000000606482015260840161047f565b6000828152600660205260409020610eda82826117a2565b506040518281527ff8e1a15aba9398e019f0b49df1a4fde98ee17ae345cb5f6b5e2c27f5033e8ce79060200160405180910390a15050565b816001600160a01b0316836001600160a01b031603610f735760405162461bcd60e51b815260206004820152601960248201527f4552433732313a20617070726f766520746f2063616c6c657200000000000000604482015260640161047f565b6001600160a01b03838116600081815260056020908152604080832094871680845294825291829020805460ff191686151590811790915591519182527f17307eab39ab6107e8899845ad3d59bd9653f200f220920489ca2b5937696c31910160405180910390a3505050565b610feb848484610a9a565b610ff7848484846110dd565b6107915760405162461bcd60e51b815260206004820152603260248201527f4552433732313a207472616e7366657220746f206e6f6e20455243373231526560448201527f63656976657220696d706c656d656e7465720000000000000000000000000000606482015260840161047f565b60606110748261093a565b600061108b60408051602081019091526000815290565b905060008151116110ab57604051806020016040528060008152506110d6565b806110b584611234565b6040516020016110c6929190611725565b6040516020818303038152906040525b9392505050565b60006001600160a01b0384163b1561122957604051630a85bd0160e11b81526001600160a01b0385169063150b7a0290611121903390899088908890600401611862565b6020604051808303816000875af192505050801561115c575060408051601f3d908101601f191682019092526111599181019061189e565b60015b61120f573d80801561118a576040519150601f19603f3d011682016040523d82523d6000602084013e61118f565b606091505b5080516000036112075760405162461bcd60e51b815260206004820152603260248201527f4552433732313a207472616e7366657220746f206e6f6e20455243373231526560448201527f63656976657220696d706c656d656e7465720000000000000000000000000000606482015260840161047f565b805181602001fd5b6001600160e01b031916630a85bd0160e11b149050610659565b506001949350505050565b60606000611241836112d4565b600101905060008167ffffffffffffffff811115611261576112616114e7565b6040519080825280601f01601f19166020018201604052801561128b576020820181803683370190505b5090508181016020015b600019017f3031323334353637383961626364656600000000000000000000000000000000600a86061a8153600a850494508461129557509392505050565b6000807a184f03e93ff9f4daa797ed6e38ed64bf6a1f010000000000000000831061131d577a184f03e93ff9f4daa797ed6e38ed64bf6a1f010000000000000000830492506040015b6d04ee2d6d415b85acef81000000008310611349576d04ee2d6d415b85acef8100000000830492506020015b662386f26fc10000831061136757662386f26fc10000830492506010015b6305f5e100831061137f576305f5e100830492506008015b612710831061139357612710830492506004015b606483106113a5576064830492506002015b600a83106103305760010192915050565b6001600160e01b03198116811461099e57600080fd5b6000602082840312156113de57600080fd5b81356110d6816113b6565b60005b838110156114045781810151838201526020016113ec565b50506000910152565b600081518084526114258160208601602086016113e9565b601f01601f19169290920160200192915050565b6020815260006110d6602083018461140d565b60006020828403121561145e57600080fd5b5035919050565b80356001600160a01b038116811461147c57600080fd5b919050565b6000806040838503121561149457600080fd5b61149d83611465565b946020939093013593505050565b6000806000606084860312156114c057600080fd5b6114c984611465565b92506114d760208501611465565b9150604084013590509250925092565b634e487b7160e01b600052604160045260246000fd5b600067ffffffffffffffff80841115611518576115186114e7565b604051601f8501601f19908116603f01168101908282118183101715611540576115406114e7565b8160405280935085815286868601111561155957600080fd5b858560208301376000602087830101525050509392505050565b60008060006060848603121561158857600080fd5b833567ffffffffffffffff81111561159f57600080fd5b8401601f810186136115b057600080fd5b6115bf868235602084016114fd565b9350506115ce60208501611465565b91506115dc60408501611465565b90509250925092565b6000602082840312156115f757600080fd5b6110d682611465565b6000806040838503121561161357600080fd5b61161c83611465565b91506020830135801515811461163157600080fd5b809150509250929050565b6000806000806080858703121561165257600080fd5b61165b85611465565b935061166960208601611465565b925060408501359150606085013567ffffffffffffffff81111561168c57600080fd5b8501601f8101871361169d57600080fd5b6116ac878235602084016114fd565b91505092959194509250565b600080604083850312156116cb57600080fd5b6116d483611465565b91506116e260208401611465565b90509250929050565b600181811c908216806116ff57607f821691505b60208210810361171f57634e487b7160e01b600052602260045260246000fd5b50919050565b600083516117378184602088016113e9565b83519083019061174b8183602088016113e9565b01949350505050565b601f82111561052057600081815260208120601f850160051c8101602086101561177b5750805b601f850160051c820191505b8181101561179a57828155600101611787565b505050505050565b815167ffffffffffffffff8111156117bc576117bc6114e7565b6117d0816117ca84546116eb565b84611754565b602080601f83116001811461180557600084156117ed5750858301515b600019600386901b1c1916600185901b17855561179a565b600085815260208120601f198616915b8281101561183457888601518255948401946001909101908401611815565b50858210156118525787850151600019600388901b60f8161c191681555b5050505050600190811b01905550565b60006001600160a01b03808716835280861660208401525083604083015260806060830152611894608083018461140d565b9695505050505050565b6000602082840312156118b057600080fd5b81516110d6816113b656fea2646970667358221220e71a9c203f2df2dfdff1e056c5c3bb1ed982021c925ad87758e3e55a3af42f9764736f6c637829302e382e31392d646576656c6f702e323032332e31312e32302b636f6d6d69742e6338386634306664005a",
  "linkReferences": {},
  "deployedLinkReferences": {}
}