{
  "_format": "hh-sol-artifact-1",
  "contractName": "NFTMarket",
  "sourceName": "contracts/NFTMarket.sol",
  "abi": [
    {
      "inputs": [],
      "stateMutability": "nonpayable",
      "type": "constructor"
    },
    {
      "anonymous": false,
      "inputs": [
        {
          "indexed": false,
          "internalType": "uint256",
          "name": "token",
          "type": "uint256"
        },
        {
          "indexed": false,
          "internalType": "address",
          "name": "owner",
          "type": "address"
        }
      ],
      "name": "CancelSell",
      "type": "event"
    },
    {
      "anonymous": false,
      "inputs": [
        {
          "indexed": false,
          "internalType": "address",
          "name": "nftContract",
          "type": "address"
        },
        {
          "indexed": false,
          "internalType": "address",
          "name": "owner",
          "type": "address"
        },
        {
          "indexed": false,
          "internalType": "address",
          "name": "creator",
          "type": "address"
        },
        {
          "indexed": false,
          "internalType": "uint256",
          "name": "token",
          "type": "uint256"
        },
        {
          "indexed": false,
          "internalType": "uint256",
          "name": "price",
          "type": "uint256"
        }
      ],
      "name": "Item",
      "type": "event"
    },
    {
      "anonymous": false,
      "inputs": [
        {
          "indexed": false,
          "internalType": "address",
          "name": "nftContract",
          "type": "address"
        },
        {
          "indexed": false,
          "internalType": "address",
          "name": "owner",
          "type": "address"
        },
        {
          "indexed": false,
          "internalType": "address",
          "name": "creator",
          "type": "address"
        },
        {
          "indexed": false,
          "internalType": "uint256",
          "name": "token",
          "type": "uint256"
        },
        {
          "indexed": false,
          "internalType": "uint256",
          "name": "price",
          "type": "uint256"
        }
      ],
      "name": "Sold",
      "type": "event"
    },
    {
      "inputs": [
        {
          "internalType": "uint256",
          "name": "",
          "type": "uint256"
        }
      ],
      "name": "Items",
      "outputs": [
        {
          "internalType": "enum NFTMarket.ListingStatus",
          "name": "status",
          "type": "uint8"
        },
        {
          "internalType": "address",
          "name": "nftContract",
          "type": "address"
        },
        {
          "internalType": "address payable",
          "name": "owner",
          "type": "address"
        },
        {
          "internalType": "address payable",
          "name": "creator",
          "type": "address"
        },
        {
          "internalType": "uint256",
          "name": "token",
          "type": "uint256"
        },
        {
          "internalType": "uint256",
          "name": "price",
          "type": "uint256"
        }
      ],
      "stateMutability": "view",
      "type": "function"
    },
    {
      "inputs": [
        {
          "internalType": "uint256",
          "name": "_tokenId",
          "type": "uint256"
        }
      ],
      "name": "buyItem",
      "outputs": [],
      "stateMutability": "payable",
      "type": "function"
    },
    {
      "inputs": [
        {
          "internalType": "uint256",
          "name": "_tokenId",
          "type": "uint256"
        }
      ],
      "name": "cancelSell",
      "outputs": [],
      "stateMutability": "nonpayable",
      "type": "function"
    },
    {
      "inputs": [],
      "name": "fetchCreatorItemsListed",
      "outputs": [
        {
          "components": [
            {
              "internalType": "enum NFTMarket.ListingStatus",
              "name": "status",
              "type": "uint8"
            },
            {
              "internalType": "address",
              "name": "nftContract",
              "type": "address"
            },
            {
              "internalType": "address payable",
              "name": "owner",
              "type": "address"
            },
            {
              "internalType": "address payable",
              "name": "creator",
              "type": "address"
            },
            {
              "internalType": "uint256",
              "name": "token",
              "type": "uint256"
            },
            {
              "internalType": "uint256",
              "name": "price",
              "type": "uint256"
            }
          ],
          "internalType": "struct NFTMarket._Item[]",
          "name": "",
          "type": "tuple[]"
        }
      ],
      "stateMutability": "view",
      "type": "function"
    },
    {
      "inputs": [],
      "name": "fetchMarketItems",
      "outputs": [
        {
          "components": [
            {
              "internalType": "enum NFTMarket.ListingStatus",
              "name": "status",
              "type": "uint8"
            },
            {
              "internalType": "address",
              "name": "nftContract",
              "type": "address"
            },
            {
              "internalType": "address payable",
              "name": "owner",
              "type": "address"
            },
            {
              "internalType": "address payable",
              "name": "creator",
              "type": "address"
            },
            {
              "internalType": "uint256",
              "name": "token",
              "type": "uint256"
            },
            {
              "internalType": "uint256",
              "name": "price",
              "type": "uint256"
            }
          ],
          "internalType": "struct NFTMarket._Item[]",
          "name": "",
          "type": "tuple[]"
        }
      ],
      "stateMutability": "view",
      "type": "function"
    },
    {
      "inputs": [],
      "name": "fetchOwnerItemsListed",
      "outputs": [
        {
          "components": [
            {
              "internalType": "enum NFTMarket.ListingStatus",
              "name": "status",
              "type": "uint8"
            },
            {
              "internalType": "address",
              "name": "nftContract",
              "type": "address"
            },
            {
              "internalType": "address payable",
              "name": "owner",
              "type": "address"
            },
            {
              "internalType": "address payable",
              "name": "creator",
              "type": "address"
            },
            {
              "internalType": "uint256",
              "name": "token",
              "type": "uint256"
            },
            {
              "internalType": "uint256",
              "name": "price",
              "type": "uint256"
            }
          ],
          "internalType": "struct NFTMarket._Item[]",
          "name": "",
          "type": "tuple[]"
        }
      ],
      "stateMutability": "view",
      "type": "function"
    },
    {
      "inputs": [],
      "name": "mintingCost",
      "outputs": [
        {
          "internalType": "uint256",
          "name": "",
          "type": "uint256"
        }
      ],
      "stateMutability": "view",
      "type": "function"
    },
    {
      "inputs": [
        {
          "internalType": "string",
          "name": "uri",
          "type": "string"
        },
        {
          "internalType": "uint256",
          "name": "_price",
          "type": "uint256"
        },
        {
          "internalType": "address",
          "name": "_nftContract",
          "type": "address"
        }
      ],
      "name": "sellItem",
      "outputs": [],
      "stateMutability": "payable",
      "type": "function"
    }
  ],
  "bytecode": "0x6080604052655af3107a400060045534801561001a57600080fd5b506001600055600380546001600160a01b03191633179055611265806100416000396000f3fe60806040526004361061007b5760003560e01c8063ae8ef20a1161004e578063ae8ef20a14610156578063e7fb74c714610169578063ebf98abf1461017c578063fc50b5d3146101a057600080fd5b806307c9cd45146100805780630f08efe0146100a257806317b47cc4146100cd5780635c90fc6614610141575b600080fd5b34801561008c57600080fd5b506100a061009b366004610ef8565b6101b5565b005b3480156100ae57600080fd5b506100b7610370565b6040516100c49190610f49565b60405180910390f35b3480156100d957600080fd5b5061012f6100e8366004610ef8565b6005602052600090815260409020805460018201546002830154600384015460049094015460ff8416946101009094046001600160a01b0390811694938116939216919086565b6040516100c496959493929190610fd8565b34801561014d57600080fd5b506100b761053a565b6100a061016436600461104a565b610741565b6100a0610177366004610ef8565b610a6c565b34801561018857600080fd5b5061019260045481565b6040519081526020016100c4565b3480156101ac57600080fd5b506100b7610c98565b600081815260056020526040902060018101546001600160a01b03163314806101ea575060028101546001600160a01b031633145b61023b5760405162461bcd60e51b815260206004820152601d60248201527f4f6e6c79206f776e65722063616e2063616e63656c206c697374696e6700000060448201526064015b60405180910390fd5b6000815460ff16600281111561025357610253610f11565b146102a05760405162461bcd60e51b815260206004820152601560248201527f4c697374696e67206973206e6f742061637469766500000000000000000000006044820152606401610232565b805460ff191660021780825560038201546040516323b872dd60e01b815230600482015233602482015260448101919091526001600160a01b0361010090920491909116906323b872dd90606401600060405180830381600087803b15801561030857600080fd5b505af115801561031c573d6000803e3d6000fd5b5050505060038101546001820154604080519283526001600160a01b0390911660208301527f9a7ead5b5e3d6b8d3e88f6057599b7eecec51b2aad38c25b8141deaec6dcabc3910160405180910390a15050565b6060600061037d60015490565b9050600061038a60025490565b600154610397919061112b565b90506000808267ffffffffffffffff8111156103b5576103b5611018565b60405190808252806020026020018201604052801561041557816020015b6040805160c08101825260008082526020808301829052928201819052606082018190526080820181905260a082015282526000199092019101816103d35790505b50905060005b84811015610531573060056000610433846001611144565b81526020810191909152604001600020600101546001600160a01b03160361051f576000610462826001611144565b60008181526005602052604090819020815160c081019092528054929350918290829060ff16600281111561049957610499610f11565b60028111156104aa576104aa610f11565b815281546001600160a01b036101009091048116602083015260018301548116604083015260028301541660608201526003820154608082015260049091015460a090910152845185908790811061050457610504611157565b602090810291909101015261051a600186611144565b945050505b806105298161116d565b91505061041b565b50949350505050565b6060600061054760015490565b905060008060005b838110156105a9573360056000610567846001611144565b81526020810191909152604001600020600101546001600160a01b03160361059757610594600184611144565b92505b806105a18161116d565b91505061054f565b5060008267ffffffffffffffff8111156105c5576105c5611018565b60405190808252806020026020018201604052801561062557816020015b6040805160c08101825260008082526020808301829052928201819052606082018190526080820181905260a082015282526000199092019101816105e35790505b50905060005b84811015610531573360056000610643846001611144565b81526020810191909152604001600020600101546001600160a01b03160361072f576000610672826001611144565b60008181526005602052604090819020815160c081019092528054929350918290829060ff1660028111156106a9576106a9610f11565b60028111156106ba576106ba610f11565b815281546001600160a01b036101009091048116602083015260018301548116604083015260028301541660608201526003820154608082015260049091015460a090910152845185908790811061071457610714611157565b602090810291909101015261072a600186611144565b945050505b806107398161116d565b91505061062b565b610749610e9f565b600082116107995760405162461bcd60e51b815260206004820152601c60248201527f5072696365206d757374206265206174206c65617374203120776569000000006044820152606401610232565b600454341461080f5760405162461bcd60e51b8152602060048201526024808201527f5072696365206d75737420626520657175616c20746f206c697374696e67207060448201527f72696365000000000000000000000000000000000000000000000000000000006064820152608401610232565b61081d600180546001019055565b600061082860015490565b90506000826001600160a01b0316636af812828630336040518463ffffffff1660e01b815260040161085c93929190611186565b6020604051808303816000875af115801561087b573d6000803e3d6000fd5b505050506040513d601f19601f8201168201806040525081019061089f91906111ef565b6040805160c0810190915290915080600081526001600160a01b038516602080830191909152306040808401919091523360608401526080830185905260a0909201879052600085815260059091522081518154829060ff1916600183600281111561090d5761090d610f11565b0217905550602082015181547fffffffffffffffffffffff0000000000000000000000000000000000000000ff166101006001600160a01b039283160217825560408084015160018401805473ffffffffffffffffffffffffffffffffffffffff1990811692851692909217905560608501516002850180549092169084161790556080840151600384015560a09093015160049283015591516323b872dd60e01b8152339181019190915230602482015260448101839052908416906323b872dd90606401600060405180830381600087803b1580156109ed57600080fd5b505af1158015610a01573d6000803e3d6000fd5b5050604080516001600160a01b03871681523060208201523381830152606081018590526080810188905290517f14119be79c3c72a43e018782c3768e0f129fd3c6b43e7fd40c621cfd78c5518093509081900360a0019150a15050610a676001600055565b505050565b610a74610e9f565b600081815260056020526040902060048101543414610ad55760405162461bcd60e51b815260206004820181905260248201527f5072696365206d75737420626520657175616c20746f204e46542070726963656044820152606401610232565b6001818101805473ffffffffffffffffffffffffffffffffffffffff191633908117909155825460ff1916909117825560028201546001600160a01b031690610b28575060018101546001600160a01b03165b6040516001600160a01b038216903480156108fc02916000818181858888f19350505050158015610b5d573d6000803e3d6000fd5b50610b6c600280546001019055565b815460038301546040516323b872dd60e01b815230600482015233602482015260448101919091526101009091046001600160a01b0316906323b872dd90606401600060405180830381600087803b158015610bc757600080fd5b505af1158015610bdb573d6000803e3d6000fd5b50506003546004546040516001600160a01b03909216935080156108fc029250906000818181858888f19350505050158015610c1b573d6000803e3d6000fd5b508154600283015460038401546004850154604080516001600160a01b0361010090960486168152336020820152949093168484015260608401919091526080830152517f5764dbcef91eb6f946584f4ea671217c686fa7e858ce4f9f42d08422b86556a99181900360a00190a15050610c956001600055565b50565b60606000610ca560015490565b905060008060005b83811015610d07573360056000610cc5846001611144565b81526020810191909152604001600020600201546001600160a01b031603610cf557610cf2600184611144565b92505b80610cff8161116d565b915050610cad565b5060008267ffffffffffffffff811115610d2357610d23611018565b604051908082528060200260200182016040528015610d8357816020015b6040805160c08101825260008082526020808301829052928201819052606082018190526080820181905260a08201528252600019909201910181610d415790505b50905060005b84811015610531573360056000610da1846001611144565b81526020810191909152604001600020600201546001600160a01b031603610e8d576000610dd0826001611144565b60008181526005602052604090819020815160c081019092528054929350918290829060ff166002811115610e0757610e07610f11565b6002811115610e1857610e18610f11565b815281546001600160a01b036101009091048116602083015260018301548116604083015260028301541660608201526003820154608082015260049091015460a0909101528451859087908110610e7257610e72611157565b6020908102919091010152610e88600186611144565b945050505b80610e978161116d565b915050610d89565b600260005403610ef15760405162461bcd60e51b815260206004820152601f60248201527f5265656e7472616e637947756172643a207265656e7472616e742063616c6c006044820152606401610232565b6002600055565b600060208284031215610f0a57600080fd5b5035919050565b634e487b7160e01b600052602160045260246000fd5b60038110610f4557634e487b7160e01b600052602160045260246000fd5b9052565b602080825282518282018190526000919060409081850190868401855b82811015610fcb578151610f7b858251610f27565b808701516001600160a01b039081168689015286820151811687870152606080830151909116908601526080808201519086015260a0908101519085015260c09093019290850190600101610f66565b5091979650505050505050565b60c08101610fe68289610f27565b6001600160a01b0396871660208301529486166040820152929094166060830152608082015260a00191909152919050565b634e487b7160e01b600052604160045260246000fd5b80356001600160a01b038116811461104557600080fd5b919050565b60008060006060848603121561105f57600080fd5b833567ffffffffffffffff8082111561107757600080fd5b818601915086601f83011261108b57600080fd5b81358181111561109d5761109d611018565b604051601f8201601f19908116603f011681019083821181831017156110c5576110c5611018565b816040528281528960208487010111156110de57600080fd5b8260208601602083013760006020848301015280975050505050506020840135915061110c6040850161102e565b90509250925092565b634e487b7160e01b600052601160045260246000fd5b8181038181111561113e5761113e611115565b92915050565b8082018082111561113e5761113e611115565b634e487b7160e01b600052603260045260246000fd5b60006001820161117f5761117f611115565b5060010190565b606081526000845180606084015260005b818110156111b45760208188018101516080868401015201611197565b506000608082850101526080601f19601f8301168401019150506001600160a01b038085166020840152808416604084015250949350505050565b60006020828403121561120157600080fd5b505191905056fea264697066735822122010b088d4ede84f909754783f98b3fe01da47bc89b5418c02a2736364a093caea64736f6c637829302e382e31392d646576656c6f702e323032332e31312e32302b636f6d6d69742e6338386634306664005a",
  "linkReferences": {},
  "deployedLinkReferences": {}
}